:100000000C945A000C9477000C9477000C947700B1
:100010000C9477000C9477000C9477000C94770084
:100020000C9477000C9477000C9477000C94770074
:100030000C9477000C9477000C9477000C94770064
:100040000C9414020C9477000C9477000C947700B5
:100050000C9477000C9477000C9477000C94770044
:100060000C9477000C947700000024272A000025C8
:10007000282B000023262904040404040404040299
:100080000202020202030303030303010204081035
:100090002040800102040810200102040810200002
:1000A0000000070002010000030406000000000039
:1000B0000000000011241FBECFEFD4E0DEBFCDBF93
:1000C00011E0A0E0B1E0E8ECF9E002C005900D928B
:1000D000A630B107D9F711E0A6E0B1E001C01D924A
:1000E000A431B107E1F70E9474010C94E3040C946D
:1000F00000000895EF92FF920F931F938B017A01F6
:10010000BC0189E00E940F03B8018BE00E940F033D
:10011000B7018AE00E940F031F910F91FF90EF90AB
:100120000895EF92FF920F931F93CF93DF9324E0F4
:1001300030E040E050E061E070E080E090E00E945C
:10014000F1017B018C0120E031E040E050E060E013
:1001500070E080E090E00E94F101EB0182E0E8169F
:10016000F10409F443C083E0E816F10409F477C010
:1001700081E0E816F10409F0AAC00091060110918F
:100180000701C017D10754F540910A0150910B01A6
:100190006091080170910901C8010E947A006AE02B
:1001A00070E080E090E00E94C40201501040C0174F
:1001B000D10754F316C040910A0150910B01609190
:1001C000080170910901C8010E947A006AE070E09C
:1001D00080E090E00E94C4020F5F1F4F0C171D07C4
:1001E00054F3D0930701C093060171C00091080138
:1001F00010910901C017D10754F540910A0150919F
:100200000B01B80180910601909107010E947A00CC
:100210006AE070E080E090E00E94C402015010406B
:10022000C017D10754F316C040910A0150910B0139
:10023000B80180910601909107010E947A006AE05E
:1002400070E080E090E00E94C4020F5F1F4F0C1727
:100250001D0754F3D0930901C093080138C00091E1
:100260000A0110910B01C017D10754F560910801E4
:1002700070910901A80180910601909107010E94E7
:100280007A006AE070E080E090E00E94C4020150D1
:100290001040C017D10754F316C060910801709147
:1002A0000901A80180910601909107010E947A003E
:1002B0006AE070E080E090E00E94C4020F5F1F4F90
:1002C0000C171D0754F3D0930B01C0930A0162E38E
:1002D00070E080E090E00E94C402DF91CF911F9116
:1002E0000F91FF90EF900895CFEFD4E0DEBFCDBF28
:1002F0000E948A020E949100FDCF6F927F928F929E
:100300009F92AF92BF92CF92DF92EF92FF920F93A4
:100310001F93CF93DF93CDB7DEB739014A01298907
:100320003A894B895C8966197709880999092A19DC
:100330003B094C095D090E948704E618F708080983
:100340001909A80197010E94A6042A0D3B1D4C1D06
:100350005D1DCA01B901DF91CF911F910F91FF90EF
:10036000EF90DF90CF90BF90AF909F908F907F9055
:100370006F900895AF92BF92CF92DF92EF92FF926B
:100380000F931F935B016C01611571058105910548
:1003900029F460E070E080E090E01AC00E947704E9
:1003A0007C010E9477040027F7FC0095102F87013D
:1003B000FF24EE24AA2797FDA095BA2FE80EF91E78
:1003C0000A1F1B1FC801B701A60195010E94A604C0
:1003D0001F910F91FF90EF90DF90CF90BF90AF9063
:1003E0000895EF92FF920F931F937B018C01621788
:1003F00073078407950764F4261B370B480B590BCA
:10040000CA01B9010E94BA01E60EF71E081F191FA2
:10041000C801B7011F910F91FF90EF9008950097C9
:1004200011F00E947C0408951F920F920FB60F9254
:1004300011242F938F939F93AF93BF9380910C01BF
:1004400090910D01A0910E01B0910F018050904C40
:10045000AF4FBF4F80930C0190930D01A0930E01FD
:10046000B0930F0127C080910C0190910D01A091D4
:100470000E01B0910F0180589E43A040B040809380
:100480000C0190930D01A0930E01B0930F01809188
:10049000100190911101A0911201B09113010196E8
:1004A000A11DB11D8093100190931101A093120121
:1004B000B093130180910C0190910D01A0910E0158
:1004C000B0910F0181589E43A040B04060F6BF91AB
:1004D000AF919F918F912F910F900FBE0F901F9012
:1004E00018952FB7F89460911001709111018091C7
:1004F0001201909113012FBF0895019751F0880FB9
:10050000991F880F991F02972FB7F8940197F1F759
:100510002FBF0895789484B5826084BD84B58160CE
:1005200084BD85B5826085BD85B5816085BDEEE6FB
:10053000F0E0808181608083E1E8F0E0808182608A
:100540008083808181608083E0E8F0E08081816049
:100550008083E1EBF0E0808184608083E0EBF0E079
:10056000808181608083EAE7F0E08081846080831D
:1005700080818260808380818160808380818068C7
:1005800080831092C1000895EF92FF920F931F9302
:100590007B018C018FB7F8944091100150911101AB
:1005A00060911201709113018FBF2FB7F894809161
:1005B000100190911101A0911201B09113012FBF70
:1005C000841B950BA60BB70B8E159F05A007B107D3
:1005D00060F31F910F91FF90EF90089580930001B9
:1005E0000895909100019295990F990F907C8F70CA
:1005F000982B90937C0080917A00806480937A009D
:1006000080917A0086FDFCCF20917800809179005E
:100610009927982F88273327822B932B08951F9390
:10062000CF93DF93182FEB0161E00E946303E12F6A
:10063000FF27E156FF4F8491833051F48091800071
:10064000806880938000D0938900C093880037C071
:10065000843051F480918000806280938000D09338
:100660008B00C0938A002BC0813029F484B5806848
:1006700084BDC7BD24C0823029F484B5806284BDA6
:10068000C8BD1DC0863041F48091B0008068809361
:10069000B000C093B30013C0873041F48091B00024
:1006A00080628093B000C093B40009C0C038D10507
:1006B00014F460E001C061E0812F0E94CD03DF915E
:1006C000CF911F910895282F3327C90185579F4F38
:1006D000FC01949129583F4FF9018491882381F0BE
:1006E000E82FFF27E859FF4FE491FF27662329F4FD
:1006F000808190958923808308958081892B8083D0
:100700000895482F5527CA0181569F4FFC01249117
:10071000CA0185579F4FFC01949149585F4FFA01D8
:100720003491332319F480E090E00895222331F1CD
:10073000233021F4809180008F7705C0243031F47C
:10074000809180008F7D8093800018C0213019F443
:1007500084B58F7704C0223021F484B58F7D84BDA9
:100760000DC0263021F48091B0008F7705C027306E
:1007700029F48091B0008F7D8093B000E32FFF2794
:10078000EE58FF4FE491FF27808120E030E089237D
:1007900011F021E030E0C9010895482F5527CA0122
:1007A00081569F4FFC012491CA0185579F4FFC0140
:1007B000949149585F4FFA0134913323C1F12223B8
:1007C00031F1233021F4809180008F7705C02430EF
:1007D00031F4809180008F7D8093800018C021309B
:1007E00019F484B58F7704C0223021F484B58F7D4D
:1007F00084BD0DC0263021F48091B0008F7705C0F4
:10080000273029F48091B0008F7D8093B000E32FD2
:10081000FF27E359FF4FE491FF27662329F48081E6
:1008200090958923808308958081892B8083089502
:10083000AF92BF92CF92DF92EF92FF920F931F93EE
:10084000CF93DF93EC01A880B980CA80DB80A1142C
:10085000B104C104D10449F482E4E82E8EECF82EF0
:100860008CE0082F8FE1182F2EC0C601B5012DE1B5
:1008700033EF41E050E00E94A60427EA31E440E073
:1008800050E00E9487047B018C01C601B5012DE177
:1008900033EF41E050E00E94A604CA01B90124E10F
:1008A0003BE040E050E00E948704E61AF70A080B9C
:1008B000190B17FF08C08FEF9FEFAFEFBFE7E80EF0
:1008C000F91E0A1F1B1FE882F9820A831B83C701D6
:1008D0009F77DF91CF911F910F91FF90EF90DF9065
:1008E000CF90BF90AF9008950E941804089581E0C2
:1008F00091E00E9418040895AA27BB278093010164
:1009000090930201A0930301B09304010895629FA4
:10091000D001739FF001829FE00DF11D649FE00DF7
:10092000F11D929FF00D839FF00D749FF00D659F58
:10093000F00D9927729FB00DE11DF91F639FB00D57
:10094000E11DF91FBD01CF011124089597FB092E68
:1009500005260ED057FD04D014D00AD0001C38F460
:1009600050954095309521953F4F4F4F5F4F0895DB
:10097000F6F790958095709561957F4F8F4F9F4FBB
:100980000895A1E21A2EAA1BBB1BFD010DC0AA1FD0
:10099000BB1FEE1FFF1FA217B307E407F50720F0E8
:1009A000A21BB30BE40BF50B661F771F881F991F63
:1009B0001A9469F760957095809590959B01AC01AC
:0809C000BD01CF010895FFCF36
:0609C80001010000000027
:00000001FF
