:100000000C945A000C9477000C9477000C947700B1
:100010000C9477000C9477000C9477000C94770084
:100020000C9477000C9477000C9477000C94770074
:100030000C9477000C9477000C9477000C94770064
:100040000C9456010C9477000C9477000C94770074
:100050000C9477000C9477000C9477000C94770044
:100060000C9477000C947700000024272A000025C8
:10007000282B000023262904040404040404040299
:100080000202020202030303030303010204081035
:100090002040800102040810200102040810200002
:1000A0000000070002010000030406000000000039
:1000B0000000000011241FBECFEFD4E0DEBFCDBF93
:1000C00011E0A0E0B1E0E2E6F4E002C005900D929C
:1000D000A230B107D9F711E0A2E0B1E001C01D9252
:1000E000AA30B107E1F70E9496000C9430020C94FC
:1000F000000061E0809100010E940B0168EE73E056
:1001000080E090E00E94060260E0809100010E9481
:100110000B0168EE73E080E090E00E940602089513
:1001200061E0809100010E94A1000895CFEFD4E02A
:10013000DEBFCDBF0E94CC010E9490000E947900DA
:10014000FDCF282F3327C90185579F4FFC0194917C
:1001500029583F4FF9018491882381F0E82FFF2728
:10016000E859FF4FE491FF27662329F48081909599
:100170008923808308958081892B80830895482F67
:100180005527CA0181569F4FFC012491CA0185570A
:100190009F4FFC01949149585F4FFA0134913323EA
:1001A00019F480E090E00895222331F1233021F406
:1001B000809180008F7705C0243031F480918000D9
:1001C0008F7D8093800018C0213019F484B58F771B
:1001D00004C0223021F484B58F7D84BD0DC026304B
:1001E00021F48091B0008F7705C0273029F48091E9
:1001F000B0008F7D8093B000E32FFF27EE58FF4FB4
:10020000E491FF27808120E030E0892311F021E094
:1002100030E0C9010895482F5527CA0181569F4FE4
:10022000FC012491CA0185579F4FFC0194914958C4
:100230005F4FFA0134913323C1F1222331F123308E
:1002400021F4809180008F7705C0243031F48091B3
:1002500080008F7D8093800018C0213019F484B510
:100260008F7704C0223021F484B58F7D84BD0DC00A
:10027000263021F48091B0008F7705C0273029F413
:100280008091B0008F7D8093B000E32FFF27E3596A
:10029000FF4FE491FF27662329F4808190958923FD
:1002A000808308958081892B808308951F920F9207
:1002B0000FB60F9211242F938F939F93AF93BF93F9
:1002C0008091020190910301A0910401B091050178
:1002D0008050904CAF4FBF4F809302019093030129
:1002E000A0930401B093050127C080910201909171
:1002F0000301A0910401B091050180589E43A040E4
:10030000B0408093020190930301A0930401B09345
:1003100005018091060190910701A0910801B0911B
:1003200009010196A11DB11D80930601909307015B
:10033000A0930801B09309018091020190910301FB
:10034000A0910401B091050181589E43A040B040A6
:1003500060F6BF91AF919F918F912F910F900FBE3B
:100360000F901F9018952FB7F89460910601709127
:10037000070180910801909109012FBF089501970D
:1003800051F0880F991F880F991F02972FB7F89483
:100390000197F1F72FBF0895789484B5826084BDEA
:1003A00084B5816084BD85B5826085BD85B5816079
:1003B00085BDEEE6F0E0808181608083E1E8F0E0D9
:1003C000808182608083808181608083E0E8F0E0CA
:1003D000808181608083E1EBF0E0808184608083B4
:1003E000E0EBF0E0808181608083EAE7F0E08081EB
:1003F000846080838081826080838081816080834B
:100400008081806880831092C1000895EF92FF92EE
:100410000F931F937B018C018FB7F89440910601D5
:100420005091070160910801709109018FBF2FB7AA
:10043000F8948091060190910701A0910801B09174
:1004400009012FBF841B950BA60BB70B8E159F05BB
:10045000A007B10760F31F910F91FF90EF900895EF
:02046000FFCFCC
:020462000D008B
:00000001FF
